:10054200786A7475006469616E78696E007A6964AC
:0C0552006F6E67687561002A2A2A2A0073
:09062400D2AB53890F4389102267
:03001B0002048656
:10048600C0E0C083C08290000FE004F070069000C8
:100496000EE004F0758D00758B00D082D083D0E01D
:0104A6003223
:10035D001205EB1206247FBA7E011205951206488E
:10036D001205C57F0112062D12064D1204E8D28E1C
:10037D00E490000EF0A3F0900012F0A3F0900016A0
:10038D0004F090000A7414F0A3747CF090000074D3
:10039D000AF0A374F0F0E4900004F0A3F0900008CC
:1003AD00F0A3F0900002F0A3F0900006F0A3F0226D
:1001920090000FE054076401600302025D900016B4
:1001A200E0FF6401600302025D120525900004EE87
:1001B200F0A3EFF090000AE0FEA3E0FF900004E05D
:1001C200FCA3E0FD120165E4FB7A10F9F81200D3FA
:1001D200900008EEF0A3EFF0900000E0FCA3E0FD39
:1001E200D39FEC9E4010900007E02402F09000069E
:1001F200E03400F08033ED2414FFE43CFED39000A1
:1002020009E09F900008E09E4010900007E024FE65
:10021200F0900006E034FFF0800F900006E0FFA3AC
:10022200E0900006CFF0A3EFF0900006E0FEA3E01E
:10023200FF7C107D00120165C006C00790000AE035
:10024200FEA3E0FBAA06E4F9F8D007D0061200D319
:0C025200900002EEF0A3EFF012063D2237
:1003BD0012035D12035D7BFF7A057942E4FDFF12A6
:1003CD00001E7BFF7A057947E4FD7F0112001E7B3D
:1003DD00FF7A05794FE4FD7F0212001E7BFF7A053F
:0E03ED007959E4FD7F0312001E12019280FB7D
:0406430041001B0057
:10059500759102C3E49FFFE49EF5938F9274FFF576
:0A05A50095F59453E7FE43910422FC
:1005C50075E8C475D10375BB0175BC2053BCF843F0
:0305D500E7022218
:09062D00EF6003D2EF22C2EF22BC
:03007B000202EA94
:1002EA00C0E0C0F0C083C082C0D075D000C000C0DA
:1002FA0001C002C003C004C005C006C007C2EDE4C5
:10030A00FF12050790001BE025E02417F582E4346C
:10031A0000F583EEF0A3EFF090001BE004F0E0B4E8
:10032A000202E4F090001BE0F5BB900013E004F039
:10033A007006900012E004F0D007D006D005D00471
:10034A00D003D002D001D000D0D0D082D083D0F058
:03035A00D0E032BE
:10050700EF6008AF9C7C00AD07800AAFBE7C00ADF2
:0D05170007AFBFAB07EBFEE42DFFEE3CFE8F
:0105240022B4
:10052500EFC394025012EF25E02417F582E434005E
:0D053500F583E0FEA3E0FF227EFF7FFF22A2
:04064D0075D48022BE
:06063D008FD2EEF5D3227E
:1005AF00E4FDFCC3ED9FEC9E500B000000000DBD61
:0505BF0000010C80EEBC
:0105C4002214
:04057A00AB07AA061B
:10057E00900000C3E5829BE5839A500A7FE87E03D4
:06058E001205AFA380ED91
:010594002244
:10055E0075B167E4FFFE0FBF00010EE4B507F7EEBD
:0B056E00B401F3E5B130E7FB75B28883
:01057900225F
:1005D80043E21443E34443A40375A5FF75A6FF75DE
:0305E800A7FF2248
:1005EB00C2AF75FFDE75FFADD2AF12055E0205D847
:05064800D28AD2AA22B3
:1004C800808182838485868790919293949596976C
:1004D80088898A8B8C8D8E8F98999A9B9C9D9E9FDC
:0706360043A53843E3402215
:1004E8001206367F301204527F031204527F0C1218
:0F04F80004527F011204527F06120452020617AB
:10046100120472EC54F0FF120472AF04EFC454F0A2
:01047100FF8B
:10047200E4FEC293EF25E0FF9294D293C2930EEE74
:03048200B408EFCC
:010485002254
:1003FB00E4FFFEFDEF25E0FFC293D293C29330944E
:10040B00010F0DEDB408EDE4FDEE25E0FEC293D235
:10041B0093C2933094010E0DEDB408EDEE540FFE24
:05042B00EF54F02EFF6C
:0104300022A9
:0D060A007FFC1204721203FBEF20E7F422C4
:10043100E0FF90001CE075F008A42FF582E435F090
:10044100F583E58224C8F582E5833404F583E493DA
:01045100FFAB
:0F045200AC07D29512060A7FF8120461C29522F8
:0F05FB00AC07D29512060A7FFA120461C295224C
:0204A700AB07A1
:1004A9007F30120452EB75F008A424C8F582E412D7
:0E04B900044BE4FB7F201205FB0BEBB410F6A6
:0104C7002212
:0C061700E4FAAF021204A70AEAB404F6E9
:0106230022B4
:10000300A907AA057F3012045275F008E9A42A1241
:07001300043CAF030205FBF2
:10001E0090001CEFF0A3EDF07F3012045212043169
:10002E0012007E604490001DE0B40808E4F09000D9
:10003E001CE004F090001CE0B40402E4F090001DFB
:10004E0012043112007EFF1205FB740129F9E43A05
:10005E00FA12007EFF60121205FB740129F9E43AD0
:0A006E00FA90001DE004F080B722B4
:0300000002025E9B
:0C025E00787FE4F6D8FD7581070202A548
:10007E00BB010689828A83E0225002E722BBFE0280
:09008E00E32289828A83E49322B3
:1000970075F008758200EF2FFFEE33FECD33CDCC20
:1000A70033CCC58233C5829BED9AEC99E5829840A3
:1000B7000CF582EE9BFEED9AFDEC99FC0FD5F0D680
:1000C700E4CEFBE4CDFAE4CCF9A88222B800C1B9AA
:1000D7000059BA002DEC8BF084CFCECDFCE5F0CBE8
:1000E700F97818EF2FFFEE33FEED33FDEC33FCEB21
:1000F70033FB10D703994004EB99FB0FD8E5E4F9DC
:10010700FA227818EF2FFFEE33FEED33FDEC33FCC8
:10011700C933C910D7059BE99A4007EC9BFCE99ABC
:10012700F90FD8E0E4C9FAE4CCFB2275F010EF2F01
:10013700FFEE33FEED33FDCC33CCC833C810D70701
:100147009BEC9AE899400AED9BFDEC9AFCE899F83C
:0E0157000FD5F0DAE4CDFBE4CCFAE4C8F922CF
:10016500EC8EF0A4CCC5F0CCCDF8EFA4CEC5F02D27
:10017500FDE43CFCE8A42EC8C5F03DFDE43CFCEFE5
:0D018500A4FFE5F028FEE43DFDE43CFC2273
:10026A000203BDE493A3F8E493A34003F68001F2EA
:10027A0008DFF48029E493A3F85407240CC8C33395
:10028A00C4540F4420C8834004F456800146F6DF64
:10029A00E4800B0102040810204080900643E47EAB
:1002AA00019360BCA3FF543F30E509541FFEE49359
:1002BA00A360010ECF54C025E060A840B8E493A320
:1002CA00FAE493A3F8E493A3C8C582C8CAC583CA4B
:1002DA00F0A3C8C582C8CAC583CADFE9DEE780BE03
:0106470000B2
:00000001FF
